:0200000480007A
:1000000097810000938181D697020000938282013C
:100010007390523093021000638402007350107C7E
:1000200097020000938242127390523017010080B1
:10003000130141FD63140100138181D6732540F142
:10004000814213030040137101FF6385A2001A91DE
:100050008502D5BF970000009380400863830000AD
:100060008290732540F181450146EF00600F9700B3
:100070000080938020F96383000082909702000043
:100080009382C2007390523003230000F5BF00003A
:1000900000008280A14673B306309302800063C5DE
:1000A00055001376750011CA230005000505FD15DE
:1000B000E347B0FE73100330828023300500210532
:1000C000E115E34EB0FC731003308280233003004F
:1000D0002103E34D73FE82800684970200809382A1
:1000E00062F2638F0204970200809382A2F1F327E9
:1000F00040F1A14673B006300A83970300809383D2
:1001000063308A9363047300EFF05FFC639A5702D5
:1001100017630000130303779773000093838347EB
:1001200063047300EFF09FFA1713000013030385B5
:10013000971300009383838463047300EFF01FF927
:10014000A2808280F322203473231034F3233034CE
:10015000D5BF411122E400080100226441018280E0
:10016000068497810000938161C0930200006311AF
:10017000550E976200009382E2701763000013032C
:100180006370977300009383E340638C6200635A4B
:10019000730003B50200A1022330A3002103E34A48
:1001A00073FE970200009382627D17030000130321
:1001B000E37C970300009383637C638C6200635A43
:1001C000730003B50200A1022330A3002103E34A18
:1001D00073FE0F100000970200009382227A17032B
:1001E00000001303A3799703000093832379638CA2
:1001F0006200635A730003B50200A1022330A3001A
:100200002103E34A73FE0F1000001773000013036D
:1002100063389383419663577300233003002103AF
:10022000E34D73FE177200001302C23611C202962C
:10023000176500001305252FEF60E02AEF60E0311D
:10024000176500001305255EEF60E029EF60005C94
:10025000EFF03FF0FD5673B0463073B04634F327ED
:100260001030372704007D8F09C773B0363073B064
:100270002630370704007D8F19C373B0061837077F
:1002800001001B078702F98F89CBF327003009672C
:10029000D98F7390073073503000054597050000E3
:1002A0009385C56B170600001306C66BEF00E000D0
:1002B000EF608024A28082808280411106E4F322D4
:1002C00040F1130300006385620073005010F5BF16
:0A02D000EF000073A260410182807C
:0802E000E802008000000000AC
:1002E800411106E422E00008F1679385072017759D
:1002F800000013052523EF5090510100A26002640D
:0403080041018280AD
:100310004932432773206E6F7420617661696C6285
:100320006C6520000000000049324320617661695D
:100330006C626C65200000004A616E20203820321B
:1003400030323400000000004461793A20257320E7
:100350000A0000000000000054656D706572617451
:100360007572653A202564207C7C2048756D69642F
:100370006974793A202564200A000000000000001A
:10038000434F323A202564202020202020202020A6
:100390007C7C2054564F433A202564202020202086
:1003A0000A00000000000000000000000000000043
:1003B000000000000000000000000000000000003D
:1003C000000000000000000000000000000000002D
:1003D000000000000000000000000000000000001D
:1003E000000000000000000000000000000000000D
:1003F00000000000000000000000000000000000FD
:1004000000000000000000000000000000000000EC
:1004100000000000000000000000000000000000DC
:1004200000000000000000000000000000000000CC
:1004300000000000000000000000000000000000BC
:1004400000000000000000000000000000000000AC
:10045000232D302B20000000686C4C0000000000B1
:1004600065666745464700003031323334353637EC
:100470003839414243444546000000000000000076
:10048000303132333435363738396162636465660A
:1004900000000000000000003A230080000000007F
:1004A0001E250080000000000025008000000000E4
:1004B000000000000000000000000000000000003C
:1004C0008028008000000000B828008000000000A4
:1004D000D623008000000000D62400800000000029
:1004E00082250080000000005426008000000000EB
:1004F00000000000000000000000000000000000FC
:1005000000000000000000000000000000000000EB
:1005100000000000000000000000000000000000DB
:1005200000000000000000000000000000000000CB
:1005300026270080000000006622008000000000E6
:1005400000000000000000000000000000000000AB
:10055000000000000000000000000000000000009B
:1005600062340000543400002834000028340000B5
:100570003E3400003E350000AE350000AE350000D0
:1005800052350000AE350000AE350000AE3500003B
:1005900066350000AE350000AE350000AE35000017
:1005A0007A350000AE350000AE350000AE350000F3
:1005B000AE3500008E3500008E3500008E3500000F
:1005C0008E3500008E3500008E3500008E3500001F
:1005D0008E3500008E3500008E3500008E3500000F
:1005E0008E3500008E3500008E3500008E350000FF
:1005F0008E350000000000008A3B008000000000F3
:10060000B63E008000000000983E00800000000020
:1006100000000000000000000000000000000000DA
:1006200000000000000000000000000000000000CA
:10063000683C008000000000000000000000000096
:100640003C3E0080000000006A3E00800000000088
:10065000000000000000000000000000000000009A
:10066000000000000000000000000000000000008A
:10067000000000000000000000000000000000007A
:10068000000000000000000000000000000000006A
:10069000163F008000000000000000000000000085
:1006A000000000000000000000000000000000004A
:1006B000000000000000000000000000000000003A
:1006C000343F008000000000563F00800000000022
:1006D000883F008000000000E03F00800000000034
:1006E00050400080000000006A40008000000000D0
:1006F0007E40008000000000984000800000000064
:10070000AC400080000000001241008000000000AA
:100710007841008000000000DC4100800000000003
:10072000FC41008000000000464200800000000004
:100730007842008000000000964200800000000027
:10074000B642008000000000664700800000000004
:100750000000000000000000000000000000000099
:100760000000000000000000000000000000000089
:100770000000000000000000000000000000000079
:10078000E0480080000000000000000000000000C1
:10079000A449008000000000FE4900800000000025
:1007A0000000000000000000000000000000000049
:1007B0008E4A008000000000584A008000000000BF
:1007C00084450080000000000E450080000000000D
:1007D0000000000000000000000000000000000019
:1007E0000000000000000000000000000000000009
:1007F000BA4A008000000000684B00800000000042
:10080000164C008000000000984C008000000000A2
:100810004932432052582041434B206661696C6540
:10082000642031200000000049324320416464729A
:10083000657373205772697465206661696C6564BD
:100840002C202564200A00004932432052582041C0
:10085000434B206661696C65642032200000000013
:100860004932432052656164206661696C65642089
:1008700000000000000000004932432064657669F2
:100880006365206E6F7420696E7469616C697A6546
:100890006420000000000000844D00800000000083
:1008A0005850008000000000C65100800000000089
:1008B0001A53008000000000DE4D008000000000A0
:1008C000004E008000000000B05B008000000000CF
:1008D0001A59008000000000B2570080000000009C
:1008E0005E59008000000000B85900800000000040
:1008F000DA59008000000000665600800000000009
:100900008656008000000000A6560080000000000F
:10091000EA560080000000002C5700800000000014
:100920007057008000000000EA57008000000000BF
:10093000485800800000000082580080000000003D
:10094000E0580080000000004862008000000000C5
:10095000686200800000000068090080000000005C
:1009600000000000000000006C6962676C6F737328
:0809700000000000000000007F
:100A0000797106F422F000180145EF50805023342C
:100A1000A4FE833784FE89EB170500001305858F3C
:100A2000EF00A04E8547EDA01705000013050590C7
:100A3000EF00A04D05469D6793850753033584FE5F
:100A4000EF50203C033584FEEF0040101305803E3C
:100A5000EF00601F970500009385458E1705000085
:100A60001305C58EEF00C037033584FEEF00C020AC
:100A7000AA872322F4FE832744FE9BD78700812781
:100A8000C217C1939B8737FDC217C1932311F4FE90
:100A9000832744FEC217C19393F7F70F2310F4FE88
:100AA000831724FE8127035704FE01273A86BE855B
:100AB000170500001305858AEF008032033584FE98
:100AC000EF00C02D033584FEEF00600CAA87231FC2
:100AD000F4FC8357E4FD9BD78700C217C193A30E94
:100AE000F4FC8357E4FD230EF4FC8347D4FD8127F7
:100AF0000347C4FD01273A86BE851705000013058C
:100B00006588EF00E02D1305803EEF00C01399B714
:100B10003E85A270027445618280011122EC0010B2
:100B2000232604FE31A08327C4FE85272326F4FE56
:100B30008327C4FE1B870700B79798009387F76742
:100B4000E3D3E7FE0100626405618280797106F4F7
:100B500022F00018233CA4FC930700022304F4FEB7
:100B60008D47A304F4FE930784FE0147BE86094621
:100B700093058005033584FDEF50802C1305803EDE
:100B8000EFF0BFF90100A2700274456182807971B3
:100B900006F422F00018233CA4FC9307000223046F
:100BA000F4FEA147A304F4FE930784FE0147BE862A
:100BB000094693058005033584FDEF506028130531
:100BC000803EEFF09FF5930704FE0547BE860D4675
:100BD00093058005033584FDEF50802B8317E4FED9
:100BE00093F7F70F1B9707011B570741834704FE35
:100BF00081279B97870081279B9707019BD70741F8
:100C0000D98F9B9707019BD707412317F4FE8317C2
:100C1000E4FE93F707F01B9707011B570741834733
:100C200014FE9B9707019BD70741D98F9B9707011C
:100C30009BD707412317F4FE8357E4FE3E85A2703D
:100C4000027445618280011122EC0010232604FE0B
:100C500031A08327C4FE85272326F4FE8327C4FE04
:100C60001B870700B79798009387F767E3D3E7FEE2
:100C70000100626405618280397106FC22F88000FF
:100C80002334A4FC232604FE9307C0022300F4FEB1
:100C9000B547A300F4FE930704FE0147BE8609464C
:100CA00093055004033584FCEF5080191305803EF2
:100CB000EFF07FF9930784FD0547BE86194693053B
:100CC0005004033584FCEF50A01C834784FD81272A
:100CD0009B97870081271B9707011B570741834775
:100CE00094FD9B9707019BD70741D98F9B970701DD
:100CF0009BD707412315F4FE8357A4FE1B870700EB
:100D00009307F00ABB07F70281273E87C167FD37CB
:100D1000BB47F70281272314F4FE835784FE812703
:100D20009B97870081272326F4FE8347B4FD812704
:100D30009B97870081271B9707011B570741834714
:100D4000C4FD9B9707019BD70741D98F9B9707014C
:100D50009BD707412313F4FE835764FE1B870700CC
:100D600093074006BB07F70281273E87C167FD371F
:100D7000BB47F70281272312F4FE831744FE812725
:100D80000327C4FEB99F2326F4FE8327C4FEC2179F
:100D9000C1933E85E270427421618280797106F4CC
:100DA00022F00018233CA4FC930700032304F4FE64
:100DB000930720FAA304F4FE930784FE0147BE863E
:100DC000094693055004033584FDEF506007130571
:100DD000803EEFF05FE70100A270027445618280FF
:100DE0005971BEEC2EFCB2E0B6E4BAE8C2F0C6F42B
:100DF0009387018122F0806326EC06F4AA8411C453
:100E00001C5881E72285EF0020540C683418268690
:100E1000228536E4EF00D026A2700274E264656198
:100E20008280797126EC4AE806F422F04EE452E022
:100E3000AA842E8909C51C5999E3EF00E0509C58FB
:100E4000806881E72685EF00205097F7FFFF9387A2
:100E50006759631FF402806483570401A18BA9CBF7
:100E60001C6CB9C7FD59294A5844834509009B07A2
:100E7000F7FF3E87A1ED5CC463D107082286A94530
:100E80002685EF002009FD576309F50229453DA09D
:100E900097F7FFFF938787586314F40080686DBF4E
:100EA00097F7FFFF93878750E318F4FA806C6DB7CC
:100EB000A2852685EF00601255D57D55A27002747B
:100EC000E2644269A269026A4561828058C40509E8
:100ED00063D70700185463CBE700638945011C60A2
:100EE0001387170018E02380B700BDBF2286268530
:100EF000EF004002E31A35F7C9B71C6013871700EB
:100F000018E029472380E70051B793870181AA851C
:100F1000886301BF797122F026EC4AE806F44EE4BA
:100F2000AA842E89328409C51C5999E3EF00C04177
:100F300097F7FFFF9387074B631AF40680641C54EE
:100F40005CC483570401A18BD1C31C6CC1C31C6C4E
:100F500008609379F90F4E891D9D1C506347F50079
:100F6000A2852685EF00602C3DE55C440525FD3714
:100F70005CC41C601387170018E0238037011C50E5
:100F80006389A70083570401858B89CBA947631721
:100F9000F900A2852685EF00402915EDA2700274A4
:100FA0004A85E2644269A2694561828097F7FFFF42
:100FB0009387C7466314F400806851B797F7FFFF23
:100FC0009387C73EE31DF4F6806C95BFA285268506
:100FD000EF00A0002DDD7D59D1B70111938701816C
:100FE00026E4846322E84AE006EC2A892E8491C430
:100FF0009C5881E72685EF00203597F7FFFF938700
:10100000673E631CF402806403170401931707030F
:10101000C19393F68700BDEE93F607019DEEA547B9
:101020002320F900136707042318E4007D55E260CC
:101030004264A26402690561828097F7FFFF93878B
:10104000E73D6314F4008068C1B797F7FFFF93870B
:10105000E735E31BF4FA806C45BF918B95C72C7084
:1010600091C99307C4076385F5004A85EF00E05FE7
:1010700023300406835704012324040093F7B7FDAB
:101080002318F4001C6C1CE08357040193E78700CD
:101090002318F4001C6C89EF835704011307002008
:1010A00093F707286386E700A2854A85EF0020476B
:1010B0008357040113F7170005C71C5023260400AB
:1010C000BB07F0401CD41C6C0145B5F38317040129
:1010D00013F7070829DF93E707042318F400B9B7CB
:1010E000898B014791E3185058C4F1BF83D705019C
:1010F000797122F026EC06F44AE84EE413F78700F3
:10110000AA842E8479EF9845634DE000B85D634A68
:10111000E0000145A2700274E2644269A26945617F
:10112000828038687DD703A904009396370323A0F3
:10113000040063DE0606506C83570401918B99C747
:101140001C441D8E3C7099C33C5C1D8E3C680C7C1D
:10115000814626858297FD5703570401631DF500DC
:101160009440F54763E9D706B70740208507B3D712
:10117000D700858BADC31C6C232404001CE093179F
:10118000370363D80700FD576314F5009C4091E3D3
:1011900048EC2C7023A02401ADDD9307C4076385C0
:1011A000F5002685EF00604C233004069DB70C7CCB
:1011B0000146854626850297FD572A86E31EF5F6E9
:1011C0009C40BDDB75476385E70059476394E7049E
:1011D00023A024013DBF136707042318E4007D55B5
:1011E00015BF83B98501E38609F203B905008D8B2C
:1011F00023B035013B093941014791E3985158C467
:10120000E35920F13C640C7CCA864E862685829781
:101210006349A0008357040193E707042318F400EF
:101220007DBFAA993B09A940E1BF9C6DA5C30111EF
:1012300022E806EC2A8419C51C5989E72EE4EF0040
:10124000A010A26597F7FFFF9387C719639BF5006E
:101250000C648397050195C722854264E2600561AD
:1012600071B597F7FFFF9387671B6394F5000C68D0
:10127000CDB797F7FFFF93876713E39CF5FC0C6CE2
:10128000C9BFE260426401450561828001458280F8
:10129000411122E006E42A842318B5002319C50071
:1012A00023300500233405002326050A233C0500CE
:1012B0002320050223240502214681451305450A02
:1012C000EF000030971700009387A7893CE097173D
:1012D00000009387278C3CE4971700009387879042
:1012E0003CE8971700009387679300FC3CECA260F2
:1012F00002644101828097050000938545F3A1AA0D
:10130000011126E41306000B9B84F5FFB384C4028D
:101310004AE02E8922E806EC9385840CEF00C03F5A
:101320002A8401CD2330050023242501610508E826
:101330001386040B8145EF00A0282285E2604264F9
:10134000A2640269056182801C59BDE7411106E46F
:1013500022E097070000938747FA3CE59387818155
:101360009C632330050823240508233805086314EB
:10137000F50085471CD92A84EF00200408E4228563
:10138000EF00A00308E82285EF00200308EC0864C2
:1013900001469145EFF0DFEF08680546A545EFF0FF
:1013A0003FEF086C0946C945EFF09FEE85471CD812
:1013B000A260026441018280828001119387818151
:1013C00026E484634AE006EC9C5822E82A8981E7F7
:1013D0002685EFF07FF79384040880689C44FD37EE
:1013E00063D607009C60A9CF8460C5BF03170401C2
:1013F00029E7C17785072326040A23300400233414
:1014000004001CC8233C04002320040223240402FB
:10141000214681451305440AEF00801A2330040653
:101420002324040623300408232404082285E260D0
:101430004264A2640269056182801304040B45B70B
:1014400091454A85EFF0DFEB88E02A8451FDB147F2
:101450002320F900E1BF5D71A2E026FC52F056ECBA
:101460005AE85EE486E44AF84EF42A8AAE8A930487
:1014700005080144054BFD5B89EC2285A6600664E6
:10148000E2744279A279027AE26A426BA26B6161EC
:10149000828003B9040183A98400FD3963D4090063
:1014A0008460D9BF83570901637BFB00831729013F
:1014B00063877701CA855285829A498C0124130972
:1014C000090BE1BF357126E5AE848395250122E93C
:1014D00006ED328463DC050083D7040123A00600F7
:1014E00093F7070885E7930700401DA0300836E40E
:1014F000EF006078A266E34105FEF2473D67F98F91
:101500000967998F93B717009CC2F1BF9307000436
:101510001CE0EA604A64AA6401450D61828083D7B9
:101520000501797122F006F426EC4AE8898B2E84B5
:1015300089CF9307F4071CE01CEC85471CD0A270F0
:101540000274E26442694561828054003000AA84DA
:10155000EFF05FF7A2652A892685EF00E01B01ED19
:101560008317040113F7072079FBF19B93E727000A
:101570002318F4007DBF97070000938707D8BCE4C9
:101580008357040108E008EC93E707082318F400E8
:10159000A2671CD0924791CF831524012685EF00C6
:1015A000407001C983570401F19B93E7170023188A
:1015B000F400835704013369F9002318240141B76B
:1015C0003D432A876371C3029377F700C1E3BDE10E
:1015D000937606FF3D8ABA960CE30CE74107E36D6C
:1015E000D7FE11E28280B306C3408A06970200004C
:1015F00096966780A6002307B700A306B7002306C8
:10160000B700A305B7002305B700A304B700230460
:10161000B700A303B7002303B700A302B700230258
:10162000B700A301B7002301B700A300B700230050
:10163000B700828093F5F50F93968500D58D93962C
:101640000501D58D93960502D58D59B79396270040
:101650009702000096968682E78026FA9680C11748
:101660001D8F3E96E371C3F89DB7D5C583B785FF3F
:10167000011122E806EC26E4138485FF63D30700FA
:101680003E94AA84EF00006997670000938787F073
:101690009C6389EF233404009767000023BC87EE26
:1016A0004264E2602685A2640561B5A5637EF4000C
:1016B00014603307D4006396E70098639C673697FD
:1016C00018E01CE4D1BFBA87986719C3E37DE4FE34
:1016D00094633386D700631F86001060B29694E34C
:1016E0003386D700E31EC7FA10631867B29694E3F7
:1016F00098E77DB76375C400B1479CC055B71060CB
:10170000B306C4006316D70014631867B29614E0DA
:1017100018E480E771B78280938775007971E19B47
:101720004AE806F422F026EC4EE4A107414741497D
:1017300063E3E7003E89370700801347F7FF6364E0
:10174000F700637CB900B1471CC10145A270027467
:10175000E2644269A26945618280AA84EF00805BED
:1017600097670000938707E398633A8405EC9767CF
:1017700000009387A7E29C6389EB81452685EF00F3
:10178000603B9767000023BBA7E0CA852685EF0072
:10179000603AFD5963113507B1479CC02685EF00BB
:1017A000805765B71C60BB87274163C30704BD46EC
:1017B00063D7F6001CE03E942330240101A81C648A
:1017C00063168702176700002336F7DC2685EF00D3
:1017D00080541305F400930784006199BB07F5401A
:1017E000B5D73E94BB07F0401CE08DB71CE7F9BFAE
:1017F00022870064A5BF130475006198E30E85FA83
:10180000B305A4402685EF00E032E31735FB69B746
:101810005C461B87F7FF58C6635A07001C56634592
:10182000F700A9476394F5006FF0CFEE1C622E8598
:101830001387170018E22380B7008280797122F0A5
:1018400026EC4AE84EE452E006F42A89AE89328456
:10185000B304D6007D5A63149400014511A8834552
:1018600004004E864A85EFF0BFFA0504E31545FFF4
:10187000A2700274E2644269A269026A45618280D0
:101880005571A2E126FD4AF94EF552F186E556ED75
:101890005AE95EE562E1E6FCEAF8AA89AE8432899B
:1018A0003684014A09C51C5999E3EFF0FFA997F75F
:1018B000FFFF938727B3639EF40C83B4890083D71B
:1018C0000401A18BEDCB9C6CFDC793070002A30420
:1018D000F102FD5A9307000302D22305F10222E42C
:1018E000930B5002139C0A0217FBFFFF130B8BB6DE
:1018F000854C4A848347040099C36392770F3B0D5C
:101900002441630E0D00EA864A86A6854E85EFF0D7
:10191000FFF2630E551F9256BB86A60136D283474F
:1019200004006386071E1309140062E802ECA30991
:10193000010482D48345090015465A85EF00E03B37
:101940001304190059EDC24713F7070109C713071C
:101950000002A309E10413F7870009C71307B002C7
:10196000A309E104834609001307A0026384E60883
:10197000F2474A8481462546294803470400130557
:1019800014009B0507FD2E87637BB60AA5CE3ECECD
:1019900095A897F7FFFF938767A86395F40083B432
:1019A000090131BF97F7FFFF938747A0E399F4F050
:1019B00083B4890129B7A6854E85EFF00FE211D5D2
:1019C0007D55AE600E64EA744A79AA790A7AEA6AA9
:1019D0004A6BAA6B0A6CE67C467D696182800504CD
:1019E00011BFC247330565413B95AC005D8D2AC8E8
:1019F000228989B7226793068700184336E4634932
:101A000007023ACE034704009307E0026310F7048D
:101A1000034714009307A0026313F70AA26709049F
:101A2000138787009C433AE463C107023ECA39A882
:101A30003B07E04093E727003ACE3EC8E1B7BB073B
:101A4000F80285462A84B99F0DBF56CA8345040013
:101A50000D4617F5FFFF130565A0EF00002A19CD0D
:101A600097F7FFFF9387879FB307F540130500049F
:101A70003B15F500C24705045D8D2AC88345040067
:101A8000194617F5FFFF1305E59D130914002304FC
:101A9000B102EF00802641C5B70700009387070019
:101AA000A1EB4247A2671377071029C3BD07C19B6B
:101AB000C1073EE49257BB8747013ED21DBD0504D6
:101AC00002CA814681472546294803470400130579
:101AD00014009B0507FD2E876374B600A1FABDB7FD
:101AE000BB07F80285462A84B99FC5B7A107D1B7BD
:101AF0003800970600009386A6D426860C084E85EB
:101B000097000000E70000002A8AE31555FB83D701
:101B1000040193F70704E39507EA12555DB5380011
:101B2000970600009386C6D126860C084E85EF00E6
:101B3000E030D9BF411122E02A842E8523A00196EE
:101B400006E4EF40300BFD576317F50093870196CD
:101B50009C4391C31CC0A260026441018280411178
:101B600022E02E848395250106E4EF004059634965
:101B700005005C6CAA975CECA26002644101828063
:101B8000835704017D777D17F98F2318F400EDB793
:101B900083D70501797122F026EC4AE84EE406F479
:101BA00093F70710AA842E843289B68999C7839542
:101BB000250189460146EF006011835704017D77B6
:101BC0007D17F98F2318F400831524010274A27085
:101BD000CE864A86A26942692685E264456181A073
:101BE000411122E02E848395250106E4EF00000ECA
:101BF000FD5703570401631BF500FD77FD17F98FAF
:101C00002318F400A2600264410182808567D98FA5
:101C10002318F40048ECFDB78395250105A8411170
:101C200022E02A842E85B285368623A0019606E41A
:101C3000EF40D003FD576317F500938701969C434F
:101C400091C31CC0A260026441018280411122E064
:101C50002A842E8523A0019606E4EF40E06BFD5711
:101C60006317F500938701969C4391C31CC0A26043
:101C7000026441018280411122E02A842E85B285CE
:101C800023A0019606E4EF40806BFD576317F50033
:101C9000938701969C4391C31CC0A26002644101DA
:101CA0008280411122E02A842E8523A0019606E439
:101CB000EF40806BFD576317F500938701969C43B7
:101CC00091C31CC0A260026441018280411122E0E4
:101CD0002A842E85B285368623A0019606E4EF403D
:101CE000606BFD576317F500938701969C4391C382
:101CF0001CC0A26002644101828093F5F50F2A9610
:101D00006314C5000145828083470500E38DB7FE5B
:101D10000505FDB7828082805D7156EC9C49BA8AC8
:101D20009845A2E04AF84EF452F03289368A86E4A9
:101D300026FC5AE85EE41B8607009B060700AA897A
:101D40002E846353D600BA872320F9000347340456
:101D500001C785272320F9001C4093F7070291C78C
:101D60008327090089272320F9000440998891E8F6
:101D7000130B9401FD5B5C4403270900999F63C129
:101D8000F406834734041840B337F0001377070292
:101D90009B8607003DEB13063404D2854E85829A5C
:101DA000FD576306F5041C4011465444998B0327E4
:101DB000090081446399C700BB84E64093970402FD
:101DC00063D3070081441C4418486354F700999F6B
:101DD000BD9C014969047D5B63992405014509A8FF
:101DE00085465A86D2854E85829A631E75017D5539
:101DF000A6600664E2744279A279027AE26A426BD2
:101E0000A26B616182808524BDB7A2961306000390
:101E1000A381C604034654041B8717009B86270032
:101E2000B307E400A381C704BDB785462286D285E7
:101E30004E85829AE30D65FB052979BF5D71A2E0AD
:101E40004AF84EF452F086E426FC56EC5AE8368AFC
:101E500083C685019307E006B2892A892E841386FA
:101E60003504638AF61E63E2D70693073006638261
:101E7000F60A63EDD700638C061E93078005638B1B
:101E8000F616930424042301D40469A8930740069A
:101E90006386F60093079006E395F6FE14401C63F4
:101EA00013F506089385870041C19C630CE363D852
:101EB00007001307D002B307F040A301E40497E63C
:101EC000FFFF9386A65A294771A893073007638EB0
:101ED000F61A63EFD7009307F0066380F6069307C0
:101EE0000007E390F6FA9C4193E7070A9CC109A812
:101EF000930750076383F60493078007E393F6F88C
:101F000093078007A302F40497E6FFFF93868657A2
:101F1000C5A81C6393842504938687009C4314E31F
:101F20002381F504854741A293F606040CE381C69C
:101F300083970700ADBF9C439DBF0C401C6313F803
:101F4000050813858700630C08089C6308E31307E2
:101F5000F006638AE60E97E6FFFF9386265129472F
:101F6000A30104044C400CC463C5050008406D99EE
:101F700008C099E3B28491CDB284B3F5E702FD14B1
:101F8000B69583C505002380B400B3D5E70263F29C
:101F9000E70CA147631EF7001C40858B91CB58408E
:101FA0001C4863C7E70093070003A38FF4FEFD14EA
:101FB000058E10C85287CE867000A2854A85EFF044
:101FC000BFD5FD5A6315550F7D55A6600664E274B2
:101FD0004279A279027AE26A426B616182809C4313
:101FE00093F5050408E381C5C217C1938DB7821725
:101FF0008193B1BFA382D50497E6FFFF938606477E
:102000000C401C6313F80508138587006301080260
:102010009C6308E313F7150001C793E505020CC0A4
:1020200041479DFF0C4093F5F5FD0CC015BF9C4347
:1020300013F8050408E363050800C217C193D9BF6C
:1020400082178193C1BF97E6FFFF938626422147FF
:1020500001BFAE871DB794411C63CC4913F8060835
:10206000138587006309080008E39C638CE3232839
:102070000400B28481B708E393F606049C6381C62A
:102080002390B700EDB78CC3DDB71C63D041814509
:102090009386870014E384632685EFF01FC619C179
:1020A000058D48C05C401CC8A301040421B7144836
:1020B0002686CE854A85029AE30855F11C40898B15
:1020C00095EBB24748441B8707009B06050063D386
:1020D000E6003E850125D5BD85465686CE854A85D6
:1020E000029AE30365EF85245C443247999FE3C578
:1020F000F4FEC1BF8144930A94017D5BF5B74111A1
:1021000022E02A842E85B285368623A0019606E435
:10211000EF40602BFD576317F500938701969C43B2
:1021200091C31CC0A260026441018280011122ECB3
:1021300000102334A4FE033784FE975700009387D2
:1021400067826315F700B707000211A081473E853B
:10215000626405618280011122EC00102334A4FE28
:10216000033784FE974700009387C77F6314F70007
:10217000894711A081473E85626405618280011113
:1021800022EC00102334A4FEAE872322F4FE832722
:1021900044FE812791E7974700009387A77E31A8E7
:1021A000832744FE1B87070085476317F70097477F
:1021B00000009387277D11A081473E8562640561F9
:1021C0008280011122EC00102334A4FEAE8723226A
:1021D000F4FE832744FE812799E38D4719A88327BE
:1021E00044FE1B87070085476314F7009D4711A035
:1021F00081473E85626405618280797106F422F030
:102200000018233CA4FC833784FD3E85EFF01FF2C9
:102210002334A4FE033784FEB167F117BA979C43B9
:102220002322F4FE033784FEB167E117BA979C437B
:102230002320F4FE033784FEB167F117BA979C435D
:102240001B870700832744FE8127E395E7FC83670C
:1022500044FE13970702836704FED98F3E85A27060
:10226000027445618280397106FC22F88000233CAB
:10227000A4FCAE872334C4FC232AF4FC833784FDFA
:102280002334F4FE833784FE3E85EFF03FEA2330AB
:10229000A4FE832744FD9B97370081273E87833721
:1022A00004FE3E9791679107BA973E87FD571CC37E
:1022B000832744FD9B97370081273E87833704FEA1
:1022C0003E979167BA973E87833784FC81271CC36A
:1022D000833784FC93D60702832744FD9B973700FE
:1022E00081273E87833704FE3E9791679107BA970F
:1022F0003E879B8706001CC381473E85E27042747F
:1023000021618280011106EC22E80010232604FEE0
:10231000F32740F12326F4FE8327C4FE3E85EF30E9
:1023200090292330A4FE033504FEEF307026AA87DF
:102330003E85E260426405618280397106FC22F8C4
:1023400080002334A4FC033584FCEFF0DFE0AA878F
:102350002324F4FE833784FC2330F4FE833704FE09
:102360009C47ADE7232604FEB1A08327C4FEBE85AB
:10237000033584FCEFF0BFE0233CA4FC8327C4FEBC
:10238000BE85033584FCEFF0DFE3AA87232AF4FC43
:10239000833784FD9C63987F832744FD833684FCC8
:1023A0000146BE85033584FD02978327C4FE852739
:1023B0002326F4FE0327C4FE832784FE01278127FA
:1023C000E345F7FA833704FE054798C70100E2703A
:1023D0004274216182801D7186ECA2E88010233C4A
:1023E000A4FAAE872334C4FA2330D4FA232AF4FAA9
:1023F000FD572326F4FEEF10404EAA87232CF4FC51
:10240000233004FEEFF01FF02338A4FC033584FBD7
:10241000EFF07FD4AA872326F4FC832784FD1B8753
:10242000070085476309F700832784FD812781C75B
:102430008327C4FE61A8232E04FC89A88327C4FD3A
:10244000BE85033584FBEFF0DFD7AA872324F4FC95
:102450008327C4FDBE85033584FBEFF05FD22330B4
:10246000A4FE033704FD833704FE631AF700032735
:1024700044FB832784FC012781276302F702233072
:1024800004FE8327C4FD8527232EF4FC0327C4FD07
:102490008327C4FC01278127E342F7FA11A001003A
:1024A000833704FE95C3833704FE9C63987F83279C
:1024B00044FB833604FA033684FABE85033504FEF2
:1024C0000297AA872326F4FE8327C4FE3E85E66092
:1024D000466425618280397122FC8000233CA4FC83
:1024E000AE872334C4FC2330D4FC232AF4FCFD57EC
:1024F0002326F4FE8327C4FE3E8562742161828018
:10250000011106EC22E800102334A4FEEF10E03C99
:10251000AA8781273E85E2604264056182807971E5
:1025200006F422F00018233CA4FCAE87232AF4FC16
:10253000FD572326F4FEEFF0FFDC2330A4FE8337A3
:1025400004FE95C7832744FD1B870700854763E288
:10255000E702833704FE9C639867832744FDBE85AA
:10256000033504FE0297AA872326F4FE21A001006A
:1025700011A001008327C4FE3E85A270027445614C
:1025800082805D7186E4A2E08008233CA4FAAE87D5
:10259000232AF4FAFD572326F4FE832744FB8127E0
:1025A000DDC3233004FEEFF0FFD52338A4FC033550
:1025B00084FBEFF05FBAAA872326F4FC232E04FCE9
:1025C00089A88327C4FDBE85033584FBEFF07FBF58
:1025D000AA872324F4FC8327C4FDBE85033584FB2E
:1025E000EFF0FFB92330A4FE033704FD833704FE68
:1025F000631AF700032744FB832784FC0127812704
:102600006302F702233004FE8327C4FD8527232EAF
:10261000F4FC0327C4FD8327C4FC01278127E34280
:10262000F7FA11A00100833704FE91CF833704FE2F
:102630009C63B867832744FBBE85033504FE02977D
:10264000AA872326F4FE8327C4FE3E85A66006647F
:10265000616182805D7186E4A2E08008233CA4FA77
:10266000AE87232AF4FAFD572326F4FE832744FB82
:102670008127DDC3233004FEEFF0DFC82338A4FC3C
:10268000033584FBEFF03FADAA872326F4FC232E0D
:1026900004FC89A88327C4FDBE85033584FBEFF0C5
:1026A0005FB2AA872324F4FC8327C4FDBE850335CB
:1026B00084FBEFF0DFAC2330A4FE033704FD833747
:1026C00004FE631AF700032744FB832784FC0127D9
:1026D00081276302F702233004FE8327C4FD852788
:1026E000232EF4FC0327C4FD8327C4FC0127812784
:1026F000E342F7FA11A00100833704FE91CF83373C
:1027000004FE9C63B86B832744FBBE85033504FE3F
:102710000297AA872326F4FE8327C4FE3E85A6607F
:102720000664616182805D7186E4A2E080082334E2
:10273000A4FCAE87233CC4FA2322F4FCFD572326D5
:10274000F4FE833784FC2330F4FE033584FCEFF081
:10275000FF9D233CA4FC832744FC1B87070089477B
:10276000630EF704832744FC1B870700894763CA6D
:10277000E700832744FC1B87070085476302F702B5
:10278000CDA8832744FC1B8707008D47630EF70401
:10279000832744FC1B8707009147630DF708D1A8E6
:1027A000833784FBE1C3033504FEEFF01FA52A87BE
:1027B000833784FB98E3232604FE6DA0833784FBD4
:1027C000C5C7833784FB9C43232AF4FC832744FD3D
:1027D0009B97270081273E87833784FDBA9723A0E4
:1027E0000700232604FE49A0833784FBC1C3833737
:1027F00084FB9C43232AF4FC832744FD9B972700FA
:1028000081273E87833784FDBA973E8785471CC35F
:102810000F008004832744FD9B97270081273E8774
:10282000833784FDBA979C4381272326F4FE232611
:1028300004FE2DA8232604FE833784FB95CB833723
:1028400084FB9C43232AF4FC832744FD9B972700A9
:1028500081273E87833784FDBA979C4381272326AF
:10286000F4FE39A0010031A0010021A0010011A057
:1028700001008327C4FE3E85A660066461618280F4
:10288000797106F422F00018233CA4FCAE87232AB9
:10289000F4FCEF306055AA872326F4FE9307C4FEAC
:1028A0003E868945033584FDEFF0FFE7AA873E8524
:1028B000A270027445618280797106F422F00018DA
:1028C000233CA4FCAE87232AF4FCEF30E051AA8716
:1028D0002326F4FE9307C4FE3E868D45033584FD12
:1028E000EFF07FE4AA873E85A27002744561828082
:1028F000011122EC00102334A4FE033784FE974715
:102900000000938727076314F700814711A0FD5744
:102910003E85626405618280011122EC001023343F
:10292000A4FE033784FE974700009387A70463142F
:10293000F700A16711A081473E856264056182802E
:10294000011122EC00102334A4FE033784FE9747C4
:102950000000938727026317F700974700009387CB
:10296000670211A081473E85626405618280011182
:1029700022EC00102334A4FE033784FE97470000A6
:10298000938747FF6314F700814711A081473E8575
:10299000626405618280011122EC0010AA8723265F
:1029A000F4FE8327C4FE8127634CF0001757000014
:1029B0001307C7BB8327C4FE8E07BA979C6311A079
:1029C00081473E85626405618280011122EC00101E
:1029D000F32740F12334F4FE833784FE3E8562649E
:1029E00005618280011122EC0010A147F3A7073096
:1029F0002334F4FE0100626405618280011122EC3F
:102A00000010A147F3B707302334F4FE01006264DD
:102A100005618280011122EC0010A147F3A7473025
:102A20002334F4FE0100626405618280011122EC0E
:102A30000010A147F3B747302334F4FE010062646D
:102A400005618280011122EC001093070008F3A7B2
:102A500047302334F4FE0100626405618280011175
:102A600022EC001093070008F3B747302334F4FE3C
:102A70000100626405618280011122EC001085670B
:102A80009B870780F3A747302334F4FE010062647C
:102A900005618280011122EC001085679B87078009
:102AA000F3B747302334F4FE01006264056182808D
:102AB000797122F40018AA87232EF4FC8327C4FD21
:102AC0000547BB17F70081272334F4FE833784FEC4
:102AD000F3A747302330F4FE010022744561828061
:102AE000797122F40018AA87232EF4FC8327C4FDF1
:102AF0000547BB17F70081272334F4FE833784FE94
:102B0000F3B747302330F4FE010022744561828020
:102B1000011106EC22E800102334A4FEAE87232224
:102B2000F4FE13054006EF30E041011106EC22E807
:102B30000010AA872330B4FE2326F4FE1305800C70
:102B4000EF304040757106E516E19AFC9EF8A2F45C
:102B5000AAF0AEECB2E8B6E4BAE03EFC42F846F4C5
:102B600072F076EC7AE87EE400091305C012EF30CB
:102B7000603D717106F516F11AED1EE922E52AE1B4
:102B8000AEFCB2F8B6F4BAF0BEECC2E8C6E4F2E0CD
:102B900076FC7AF87EF40019EFF03FE3AA87175726
:102BA00000001307A79C8E07BA979C632334F4F6A2
:102BB000833784F68DC7033584F6EFF07FD8233052
:102BC000A4F6833704F683B78718233CF4F48337DD
:102BD00004F683B78717833584F50D458297010086
:102BE000AA708A726A63CA632A640A65E6754676C1
:102BF000A6760677E6674668A668066EE27E427F9E
:102C0000A27F4D6173002030397106FC22F88000EC
:102C1000AA872330B4FC2326F4FCEFF01FDBAA873D
:102C200017570000130787948E07BA979C632334C5
:102C3000F4FEF32720342330F4FE833784FE85CB63
:102C4000033584FEEFF0DFCF233CA4FC833704FE82
:102C500093F7F73F033784FD9387670A8E07BA9788
:102C600098638327C4FCBE85033584FE0297010068
:102C7000E270427421618280717106F516F11AEDDD
:102C80001EE922E52AE1AEFCB2F8B6F4BAF0BEECD9
:102C9000C2E8C6E4F2E076FC7AF87EF40019EFF0C0
:102CA000DFD2AA87175700001307478C8E07BA9701
:102CB0009C632334F4F6833784F68DC7033584F69A
:102CC000EFF01FC82330A4F6833704F683B78720BC
:102CD000233CF4F4833704F683B7871F833584F5E8
:102CE0001D4582970100AA708A726A63CA632A64CA
:102CF0000A65E6754676A6760677E6674668A668AC
:102D0000066EE27E427FA27F4D617300203001118A
:102D100022EC0010AA872330B4FE2326F4FE010023
:102D2000626405618280797106F422F00018AA8736
:102D30002338B4FC232EF4FCEFF03FC9AA87812787
:102D40003E85EFF05FC52334A4FE033584FEEF100B
:102D5000A0232330A4FE833704FEA907BE850335D4
:102D600084FEEF10E0270100A270027445618280AA
:102D70000000000000000000000000000000000053
:102D8000157186ED96E99AE59EE122FD2AF92EF568
:102D900032F136ED3AE93EE542E1C6FCF2F8F6F4EE
:102DA000FAF0FEEC8011EFF05FC2AA87174700002F
:102DB0001307C77B8E07BA979C632334F4F6F32777
:102DC00020342330F4F6F3271034233CF4F4F327B3
:102DD00030342338F4F4F32750302334F4F48337B9
:102DE00084F6638F070E033584F6EFF07FB523304A
:102DF000A4F4833704F6812793F7F73F232EF4F2E8
:102E0000833704F663DF070A8327C4F31B870700B1
:102E1000930700086313F702833704F483B78752DC
:102E20002338F4F2833704F403B787518327C4F3BC
:102E3000833504F33E85029765A08327C4F31B877F
:102E40000700AD4763D7E700833784F493F7F703B0
:102E500095EB033704F48327C4F3A5079607BA97C5
:102E60009C672338F4F2033704F48327C4F39607EE
:102E7000BA9703B787118327C4F3833504F33E85DC
:102E80000297B9A8833784F413F7F70389476319C6
:102E9000F704F32770302334F4F2833704F483B754
:102EA00007182338F4F2833784F29C632330F4F25A
:102EB0008327C4F3033704F2833504F33E85029776
:102EC00005A0033704F48327C4F39387670A8E07AA
:102ED000BA9798638327C4F3BE85033584F60297B7
:102EE000EE60CE622E638E636A744A75AA750A76A6
:102EF000EA664A67AA670A68E678467EA67E067F83
:102F0000E66F2D617300203000000000000000001B
:102F100000000000000000000000000000000000B1
:102F200000000000000000000000000000000000A1
:102F30000000000000000000000000000000000091
:102F40000000000000000000000000000000000081
:102F50000000000000000000000000000000000071
:102F60000000000000000000000000000000000061
:102F700000000000000000000000717106F516F16D
:102F80001AED1EE922E52AE1AEFCB2F8B6F4BAF079
:102F9000BEECC2E8C6E4F2E076FC7AF87EF40019F2
:102FA000EFF0BFA2AA87174700001307275C8E0720
:102FB000BA979C632334F4F6833784F68DC70335C0
:102FC00084F6EFF0FF972330A4F6833704F683B737
:102FD0008732233CF4F4833704F683B78731833593
:102FE00084F5414582970100AA708A726A63CA63B8
:102FF0002A640A65E6754676A6760677E667466829
:10300000A668066EE27E427FA27F4D61730020308B
:10301000717106F516F11AED1EE922E52AE1AEFC02
:10302000B2F8B6F4BAF0BEECC2E8C6E4F2E076FC60
:103030007AF87EF40019EFF05F99AA87174700002D
:103040001307C7528E07BA979C632334F4F683376D
:1030500084F68DC7033584F6EFF09F8E2330A4F6F7
:10306000833704F683B78734233CF4F4833704F6BC
:1030700083B78733833584F5454582970100AA706D
:103080008A726A63CA632A640A65E6754676A6761A
:103090000677E6674668A668066EE27E427FA27FF4
:1030A0004D6173002030717106F516F11AED1EE9BD
:1030B00022E52AE1AEFCB2F8B6F4BAF0BEECC2E802
:1030C000C6E4F2E076FC7AF87EF40019EFF0FF8FA8
:1030D000AA8717470000130767498E07BA979C63B2
:1030E0002334F4F6833784F68DC7033584F6EFF086
:1030F0003F852330A4F6833704F683B78736233C15
:10310000F4F4833704F683B78735833584F549456E
:1031100082970100AA708A726A63CA632A640A6588
:10312000E6754676A6760677E6674668A668066E72
:10313000E27E427FA27F4D6173002030717106F5FF
:1031400016F11AED1EE922E52AE1AEFCB2F8B6F45A
:10315000BAF0BEECC2E8C6E4F2E076FC7AF87EF49F
:103160000019EFF09F86AA87174700001307074052
:103170008E07BA979C632334F4F6833784F68DC7A1
:10318000033584F6EFF0CFFB2330A4F6833704F643
:1031900083B78738233CF4F4833704F683B7873743
:1031A000833584F54D4582970100AA708A726A635F
:1031B000CA632A640A65E6754676A6760677E667E8
:1031C0004668A668066EE27E427FA27F4D6173006C
:1031D0002030717106F516F11AED1EE922E52AE19B
:1031E000AEFCB2F8B6F4BAF0BEECC2E8C6E4F2E067
:1031F00076FC7AF87EF40019EFF02FFDAA871747C6
:1032000000001307A7368E07BA979C632334F4F6A1
:10321000833784F68DC7033584F6EFF06FF22330E1
:10322000A4F6833704F683B7873A233CF4F4833754
:1032300004F683B78739833584F5514582970100B9
:10324000AA708A726A63CA632A640A65E67546765A
:10325000A6760677E6674668A668066EE27E427F37
:10326000A27F4D6173002030717106F516F11AEDE1
:103270001EE922E52AE1AEFCB2F8B6F4BAF0BEECE3
:10328000C2E8C6E4F2E076FC7AF87EF40019EFF0CA
:10329000CFF3AA87174700001307472D8E07BA9769
:1032A0009C632334F4F6833784F68DC7033584F6A4
:1032B000EFF00FE92330A4F6833704F683B7873C99
:1032C000233CF4F4833704F683B7873B833584F5D6
:1032D000554582970100AA708A726A63CA632A649C
:1032E0000A65E6754676A6760677E6674668A668B6
:1032F000066EE27E427FA27F4D61730020307171C5
:1033000006F516F11AED1EE922E52AE1AEFCB2F847
:10331000B6F4BAF0BEECC2E8C6E4F2E076FC7AF8A5
:103320007EF40019EFF06FEAAA8717470000130731
:10333000E7238E07BA979C632334F4F6833784F629
:103340008DC7033584F6EFF0AFDF2330A4F6833763
:1033500004F683B7873E233CF4F4833704F683B73F
:10336000873D833584F5594582970100AA708A729A
:103370006A63CA632A640A65E6754676A6760677A6
:10338000E6674668A668066EE27E427FA27F4D61D0
:1033900073002030717106F516F11AED1EE922E571
:1033A0002AE1AEFCB2F8B6F4BAF0BEECC2E8C6E46C
:1033B000F2E076FC7AF87EF40019EFF00FE1AA87CC
:1033C000174700001307871A8E07BA979C632334A8
:1033D000F4F6833784F68DC7033584F6EFF04FD6C5
:1033E0002330A4F6833704F683B78740233CF4F4F4
:1033F000833704F683B7873F833584F55D4582972D
:103400000100AA708A726A63CA632A640A65E67553
:103410004676A6760677E6674668A668066EE27E7A
:10342000427FA27F4D6173002030717106F516F165
:103430001AED1EE922E52AE1AEFCB2F8B6F4BAF0C4
:10344000BEECC2E8C6E4F2E076FC7AF87EF400193D
:10345000EFF0AFD7AA8717470000130727118E0791
:10346000BA979C632334F4F6833784F68DC703350B
:1034700084F6EFF0EFCC2330A4F6833704F683B75D
:103480008742233CF4F4833704F683B787418335BE
:1034900084F5614582970100AA708A726A63CA63E3
:1034A0002A640A65E6754676A6760677E667466874
:1034B000A668066EE27E427FA27F4D6173002030D7
:1034C000717106F516F11AED1EE922E52AE1AEFC4E
:1034D000B2F8B6F4BAF0BEECC2E8C6E4F2E076FCAC
:1034E0007AF87EF40019EFF04FCEAA871747000054
:1034F0001307C7078E07BA979C632334F4F6833704
:1035000084F68DC7033584F6EFF08FC32330A4F61D
:10351000833704F683B78744233CF4F4833704F6F7
:1035200083B78743833584F5654582970100AA7088
:103530008A726A63CA632A640A65E6754676A67665
:103540000677E6674668A668066EE27E427FA27F3F
:103550004D6173002030717106F516F11AED1EE908
:1035600022E52AE1AEFCB2F8B6F4BAF0BEECC2E84D
:10357000C6E4F2E076FC7AF87EF40019EFF0EFC4CE
:10358000AA8717470000130767FE8E07BA979C6348
:103590002334F4F6833784F68DC7033584F6EFF0D1
:1035A0002FBA2330A4F6833704F683B78746233C2B
:1035B000F4F4833704F683B78745833584F569458A
:1035C00082970100AA708A726A63CA632A640A65D4
:1035D000E6754676A6760677E6674668A668066EBE
:1035E000E27E427FA27F4D6173002030717106F54B
:1035F00016F11AED1EE922E52AE1AEFCB2F8B6F4A6
:10360000BAF0BEECC2E8C6E4F2E076FC7AF87EF4EA
:103610000019EFF08FBBAA8717470000130707F5C3
:103620008E07BA979C632334F4F6833784F68DC7EC
:10363000033584F6EFF0CFB02330A4F6833704F6D9
:1036400083B78748233CF4F4833704F683B787476E
:10365000833584F56D4582970100AA708A726A638A
:10366000CA632A640A65E6754676A6760677E66733
:103670004668A668066EE27E427FA27F4D617300B7
:103680002030717106F516F11AED1EE922E52AE1E6
:10369000AEFCB2F8B6F4BAF0BEECC2E8C6E4F2E0B2
:1036A00076FC7AF87EF40019EFF02FB2AA8717475C
:1036B00000001307A7EB8E07BA979C632334F4F638
:1036C000833784F68DC7033584F6EFF06FA7233078
:1036D000A4F6833704F683B7874A233CF4F4833790
:1036E00004F683B78749833584F5714582970100D5
:1036F000AA708A726A63CA632A640A65E6754676A6
:10370000A6760677E6674668A668066EE27E427F82
:10371000A27F4D6173002030717106F516F11AED2C
:103720001EE922E52AE1AEFCB2F8B6F4BAF0BEEC2E
:10373000C2E8C6E4F2E076FC7AF87EF40019EFF015
:10374000CFA8AA8717470000130747E28E07BA974A
:103750009C632334F4F6833784F68DC7033584F6EF
:10376000EFF00F9E2330A4F6833704F683B7874C1F
:10377000233CF4F4833704F683B7874B833584F511
:10378000754582970100AA708A726A63CA632A64C7
:103790000A65E6754676A6760677E6674668A66801
:1037A000066EE27E427FA27F4D6173002030717110
:1037B00006F516F11AED1EE922E52AE1AEFCB2F893
:1037C000B6F4BAF0BEECC2E8C6E4F2E076FC7AF8F1
:1037D0007EF40019EFF06F9FAA87174700001307C8
:1037E000E7D88E07BA979C632334F4F6833784F6C0
:1037F0008DC7033584F6EFF0AF942330A4F68337FA
:1038000004F683B7874E233CF4F4833704F683B77A
:10381000874D833584F5794582970100AA708A72B5
:103820006A63CA632A640A65E6754676A6760677F1
:10383000E6674668A668066EE27E427FA27F4D611B
:1038400073002030717106F516F11AED1EE922E5BC
:103850002AE1AEFCB2F8B6F4BAF0BEECC2E8C6E4B7
:10386000F2E076FC7AF87EF40019EFF00F96AA8762
:1038700017470000130787CF8E07BA979C6323343E
:10388000F4F6833784F68DC7033584F6EFF04F8B5B
:103890002330A4F6833704F683B78750233CF4F42F
:1038A000833704F683B7874F833584F57D45829748
:1038B0000100AA708A726A63CA632A640A65E6759F
:1038C0004676A6760677E6674668A668066EE27EC6
:1038D000427FA27F4D6173002030011122EC001065
:1038E000F32750302334F4FE833784FE93F7F70335
:1038F0002334F4FE033784FE8947630DF700033752
:1039000084FE8D47630AF700033784FE854763070B
:10391000F70039A08D4731A0914721A0854711A01C
:1039200081473E85626405618280797122F40018C6
:10393000AA872338B4FC232EF4FCF3275030233419
:10394000F4FE833784FE93F707FC2334F4FE8337B9
:1039500004FD2330F4FE8327C4FD1B870700914735
:1039600063E7E7068367C4FD1397270097D7FFFF38
:10397000938747BFBA979C431B87070097D7FFFFE2
:10398000938747BEBA978287833704FE7390773058
:10399000833784FE93E72700739057300DA8833751
:1039A00004FE73907730833784FE93E7370073907B
:1039B000573031A8833704FE93E7170073905730D0
:1039C00039A0833704FEF19B73905730010001004A
:1039D000227445618280011122EC0010AA872326FF
:1039E000F4FE8327C4FE1B870700AD47630EF70470
:1039F0008327C4FE1B870700AD4763C1E702832707
:103A0000C4FE1B8707008D476300F7048327C4FEAD
:103A10001B8707009D476309F7020DA88327C4FE93
:103A20001B870700C1476343F7028327C4FE1B8738
:103A30000700FD4763DAE7008327C4FE1B87070002
:103A4000930700086314F700854719A00100814718
:103A50003E85626405618280797106F422F0001867
:103A6000233CA4FCAE873287232AF4FCBA872328A0
:103A7000F4FC232604FE833784FD99E3FD577DA0E3
:103A8000832744FD1B870700FD4763ECE708836736
:103A900044FD1397270097D7FFFF9387E7ADBA97A9
:103AA0009C431B87070097D7FFFF9387E7ACBA9724
:103AB0008287832704FD812781C7EFE0BFF2ADA095
:103AC000EFE0DFF395A0832704FD812781C7EFE0B6
:103AD0007FF499A8EFE09FF581A8832704FD812753
:103AE00081C7EFE03FF689A0EFE07FF735A8832795
:103AF00004FD812781C7EFE03FF83DA0EFE09FF98B
:103B000025A0832704FD812799C7832744FD3E858F
:103B1000EFE01FFA11A8832744FD3E85EFE05FFC2C
:103B200021A0FD572326F4FE8327C4FE3E85A27004
:103B3000027445618280397122FC8000233CA4FC20
:103B4000AE872334C4FC232AF4FC833784FD23345A
:103B5000F4FE832744FD1B870700AD4763C2E702DD
:103B6000833784FC91CF033784FE832744FD9387FA
:103B7000670A8E07BA97033784FC98E3814711A040
:103B8000FD573E85627421618280397106FC22F8FE
:103B900080002334A4FC833784FC2330F4FE833775
:103BA00004FE9C47CDEF232604FE81A0033704FECC
:103BB0008327C4FE9607BA9723BC0710033704FE79
:103BC0008327C4FEA5079607BA9723B007000337DB
:103BD00004FE8327C4FEA5079607BA9723B40700FF
:103BE0008327C4FE85272326F4FE8327C4FE1B8774
:103BF0000700FD47E3DCE7FA232404FE1DA003379A
:103C000004FE832784FE9387670A8E07BA9717F707
:103C1000FFFF130727F098E3832784FE85272324DB
:103C2000F4FE832784FE1B870700AD47E3D9E7FC3A
:103C3000F3275030233CF4FC97C7FFFF9387C7500E
:103C4000033784FD6319F70097F5FFFF938585130C
:103C50000145EFF09FCD833704FE054798C701006B
:103C6000E270427421618280397106FC22F8800082
:103C7000233CA4FCAE872334C4FC2330D4FC232A89
:103C8000F4FC232604FE833784FD2330F4FE8327CF
:103C900044FD3E85EFF03FD4AA8799E3D55751AA5A
:103CA000832744FD1B870700930700086319F7006B
:103CB000EFF0BFC2AA87812799C3CD579DAA83374A
:103CC00084FCB9CB832744FD1B87070093070008BA
:103CD000631FF700833704FE033784FC23BCE750DF
:103CE000833704FE033704FC23B4E75289A2033769
:103CF00004FE832744FD9607BA97033784FC23BC50
:103D0000E710033704FE832744FDA5079607BA97FB
:103D1000033704FC98E721AA832744FD1B8707008B
:103D2000AD47630CF70C832744FD1B870700AD47A5
:103D300063C1E702832744FD1B8707008D476301AA
:103D4000F704832744FD1B8707009D476301F7069F
:103D5000E1A8832744FD1B870700C1476346F70C92
:103D6000832744FD1B870700FD4763D8E7088327A7
:103D700044FD1B870700930700086301F7066DA049
:103D8000033704FE832744FD9607BA9717F7FFFF12
:103D90001307C7E723BCE710033704FE832744FD5E
:103DA000A5079607BA97033704FC98E349A00337A1
:103DB00004FE832744FD9607BA9717F7FFFF130702
:103DC000C7F623BCE710033704FE832744FDA5078D
:103DD0009607BA97033704FC98E391A8833704FE4B
:103DE00017F7FFFF1307E7F223BCE750833704FE02
:103DF000033704FC23B4E7521DA8033704FE8327CE
:103E000044FD9607BA9717F7FFFF130747D223BC65
:103E1000E710033704FE832744FDA5079607BA97EA
:103E2000033704FC98E321A0D1572326F4FE83270F
:103E3000C4FE3E85E270427421618280011106EC6D
:103E400022E800102334A4FEAE872322F4FE832749
:103E500044FE0546BE85033584FEEFF0FFBFAA870A
:103E60003E85E260426405618280011106EC22E831
:103E700000102334A4FEAE872322F4FE832744FEE1
:103E80000146BE85033584FEEFF01FBDAA873E853F
:103E9000E260426405618280011106EC22E80010B4
:103EA0002334A4FEEFF07FA3AA8781273E85E2603A
:103EB000426405618280011106EC22E8001023347F
:103EC000A4FEAE872322F4FE832744FE812781EFE0
:103ED000832744FE97F5FFFF9385C5EA3E85EFF003
:103EE000DFA4814725A0832744FE1B870700854761
:103EF000631DF700832744FE9725000093858520E6
:103F00003E85EFF09FA2814711A0FD573E85E260FC
:103F1000426405618280797122F400182334A4FE82
:103F2000AE87233CC4FC2322F4FE81473E852274E5
:103F300045618280797122F40018233CA4FC23346B
:103F400004FEF32700B02334F4FE833784FE3E855D
:103F5000227445618280797106F422F00018233CB6
:103F6000A4FC833784FD99E3814711A8033584FDC0
:103F7000EFE09F9AAA872326F4FE8327C4FE3E859E
:103F8000A270027445618280397106FC22F88000BB
:103F90002334A4FC233C04FC033584FCEFE05F9A4B
:103FA0002334A4FE833784FE8DC7833784FE83B712
:103FB00007202330F4FE833704FE81CF833704FECD
:103FC0009C63D86F930784FD3E868545033504FEC8
:103FD0000297833784FD3E85E270427421618280BE
:103FE0005D7186E4A2E026FC8008233CA4FA233815
:103FF000B4FAFD57232EF4FC033584FBEFE05F9405
:104000002338A4FC833704FD85CF833704FD83B7B1
:1040100007202334F4FC833784FC9DC3833784FC5E
:104020009C63C473033584FBEFE09F8CAA8703363F
:1040300004FBBE85033584FC8294AA87232EF4FCFE
:104040008327C4FD3E85A6600664E27461618280B8
:10405000011122EC00102334A4FE9737000093874F
:1040600067903E85626405618280011122EC001038
:104070002334A4FE9D473E85626405618280011160
:1040800022EC00102334A4FE973700009387878D1D
:104090003E85626405618280011122EC00102334A8
:1040A000A4FE8D473E85626405618280397106FCFD
:1040B00022F880002334A4FCAE872322F4FCFD57B1
:1040C0002326F4FE033584FCEFE09F872330A4FE13
:1040D000833704FE85CB833704FE83B70718233C60
:1040E000F4FC833784FD99CF833784FD9C63D86FBC
:1040F000930744FC3E868D45033584FD0297AA87CD
:104100002326F4FE8327C4FE3E85E27042742161BB
:104110008280397106FC22F880002334A4FCAE872B
:104120002322F4FCFD572326F4FE033584FCEFE044
:104130003F812330A4FE833704FE85CB833704FE02
:1041400083B70718233CF4FC833784FD99CF83376A
:1041500084FD9C63D86F930744FC3E8689450335F4
:1041600084FD0297AA872326F4FE8327C4FE3E859A
:10417000E270427421618280397106FC22F880006D
:104180002334A4FCAE872322F4FC232604FE03354B
:1041900084FCEFE0EFFA2330A4FE833704FE85CBE6
:1041A000833704FE83B70718233CF4FC833784FD70
:1041B00099CF833784FD9C63D86F930744FC3E8678
:1041C0009145033584FD0297AA872326F4FE8327B1
:1041D000C4FE3E85E270427421618280011106ECCA
:1041E00022E800102334A4FE033584FEEFE04FF5EF
:1041F000AA873E85E260426405618280397106FCCF
:1042000022F88000233CA4FCAE872334C4FC232A7C
:10421000F4FC033584FDEFE0AFF22334A4FE8337D2
:1042200084FE81CF832744FD033684FCBE8503359D
:1042300084FEEFF05F90AA8711A0FD573E85E270E3
:10424000427421618280011122EC00102334A4FE0B
:104250002330B4FE833704FE83D7070081278D8B7C
:1042600081273E878D476314F700914711A0894746
:104270003E85626405618280797122F40018233CD6
:10428000A4FCF32710342334F4FE833784FE3E85E8
:10429000227445618280011122EC00102334A4FEB7
:1042A0002330B4FE833704FE7390173481473E8574
:1042B000626405618280011106EC22E8001023345B
:1042C000A4FE033584FEEFE08FEAAA873E85E26014
:1042D000426405618280011122EC00102334A4FEA7
:1042E000033784FE973700009387C7C26315F70032
:1042F000B707000C11A081473E856264056182808A
:10430000011122EC00102334A4FE033784FE9737FA
:104310000000938727C06315F7009307500211A090
:1043200081473E85626405618280011122EC0010A4
:104330002334A4FE033784FE97370000938787BD9C
:104340006314F7009D4711A081473E8562640561B3
:104350008280011122EC00102334A4FEAE872322B8
:10436000F4FE832744FE812791E797270000938777
:10437000676131A8832744FE1B87070085476317C1
:10438000F700972700009387E75F11A081473E85DC
:10439000626405618280011122EC00102334A4FEC6
:1043A000AE872322F4FE832744FE812799E3AD479D
:1043B00019A8832744FE1B87070085476314F7006D
:1043C000A54711A081473E85626405618280011185
:1043D00022EC0010AA872326F4FE8327C4FE81273F
:1043E00099E3814711A0FD573E8562640561828093
:1043F000797106F422F00018233CA4FCAE87232A2E
:10440000F4FC033584FDEFF01FED2334A4FE832775
:1044100044FD1397C700833784FE3E97B7072000FB
:104420009107BA979C4381273E85A270027445612B
:104430008280797106F422F00018233CA4FCAE8738
:104440003287232AF4FCBA872328F4FC033584FD41
:10445000EFF07FE82334A4FE832744FD1397C700C1
:10446000833784FE3E97B70720009107BA973E87AF
:10447000832704FD1CC30100A27002744561828081
:10448000797106F422F00018233CA4FCAE87328731
:10449000232AF4FCBA872328F4FC033584FDEFF0CB
:1044A0009FE32334A4FE832744FD1397C70083377B
:1044B00084FE3E97B7072000BA973E87832704FD06
:1044C0001CC381473E85A270027445618280797168
:1044D00006F422F00018233CA4FCAE87232AF4FC47
:1044E000033584FDEFF03FDF2334A4FE832744FD32
:1044F0001397C700833784FE3E97B7072000BA970B
:104500009C4381273E85A270027445618280797147
:1045100006F422F00018233CA4FCAE873287232A3D
:10452000F4FCBA872328F4FC033584FDEFF0BFDAEE
:104530002334A4FE033584FDEFF03FDFAA87232256
:10454000F4FE832744FE812785CB032704FD8327C0
:1045500044FE012781276371F702832744FD9B975F
:10456000270081273E87833784FEBA973E878327BB
:1045700004FD1CC3814711A0FD573E85A270027443
:1045800045618280797106F422F00018233CA4FC76
:10459000AE87232AF4FC033584FDEFF0DFD3233408
:1045A000A4FE832744FD9B97270081273E878337FE
:1045B00084FEBA979C4381273E85A27002744561B0
:1045C0008280397106FC22F88000233CA4FCAE876F
:1045D0003687232AF4FCB2872328F4FCBA872326E3
:1045E000F4FC033584FDEFF01FCF2334A4FE8327B2
:1045F00044FD13977700833784FEBA97032704FDA1
:104600001B57574001271B17270001273E97896733
:10461000BA979C432322F4FE8327C4FC812785C3D9
:10462000832704FDFD8B81270547BB17F7008127F2
:104630001B870700832744FED98F812715A0832776
:1046400004FDFD8B81270547BB17F700812793C722
:10465000F7FF81271B870700832744FEF98F8127F7
:10466000032744FD93167700033784FE369783268D
:1046700004FD9BD6564081269B9626008126BA963D
:10468000096736971CC381473E85E27042742161F9
:104690008280011106EC22E80010AA872330B4FEC4
:1046A0002326F4FE1305C012EF10D009397106FC61
:1046B00022F88000AA872330B4FC2326F4FC833739
:1046C00004FC2334F4FEEFE04FB0AA8781273E8537
:1046D000EFF0FFCFAA872322F4FE832744FEBE8596
:1046E000033584FEEFF0DFD0AA872320F4FE0335E4
:1046F00084FEEFF0FFC0AA87232EF4FC032704FEFC
:104700008327C4FD012781276370F704033784FEE4
:10471000836704FE89078E07BA979C6395C70337A2
:1047200084FE836704FE89078E07BA979063832609
:1047300004FE033784FE836704FEA9079607BA9731
:104740009C6BBE8536850296032704FE832744FEB4
:104750003A86BE85033584FEEFF0BFCD0100E270DE
:104760004274216182805D7186E4A2E08008233C6E
:10477000A4FA833784FB2330F4FE833704FE9C477E
:10478000639B0714232604FE25AA033584FBEFF060
:104790003FB7AA87232EF4FC8327C4FEBE850335CA
:1047A00084FBEFF01FBB2338A4FC8327C4FEBE8527
:1047B000033584FBEFF03FBEAA872326F4FC833742
:1047C00004FD9C639C63033504FD8297232404FE4F
:1047D000A5A8032784FE8327C4FE81463A86BE85AA
:1047E000033504FEEFF0FFDD032784FE8327C4FDBD
:1047F000012781276355F704832784FE0146BE8580
:10480000033584FBEFF0BFD0033704FE832784FE1B
:1048100089078E07BA9723B00700033704FE832762
:1048200084FEA9079607BA9723B40700033704FE4E
:10483000832784FEA9079607BA9723B80700832722
:1048400084FE85272324F4FE832784FE1B8707002C
:104850009307F03FE3DFE7F68327C4FE0146BE85FA
:10486000033584FBEFF0DFC1833704FD9C63987F41
:104870008327C4FC833604FE0146BE85033504FD50
:104880000297833704FD9C63987F8327C4FC83369B
:1048900004FE170600001306A6E1BE85033504FDDD
:1048A0000297833704FD9C63B8678327C4FCBE85E9
:1048B000033504FD02978327C4FE85272326F4FED3
:1048C0008327C4FE1B8707008547E3D0E7EC8337C7
:1048D00004FE054798C70100A660066461618280F6
:1048E000397106FC22F88000233CA4FCAE872334F7
:1048F000C4FC2330D4FC232AF4FC833784FD233406
:10490000F4FE033584FDEFF0BF9FAA873E8783271F
:1049100044FD812763C4E700FD5741A0833784FC31
:1049200095CF832744FD0946BE85033584FDEFF00E
:104930001FBE033784FE832744FD89078E07BA977D
:10494000033784FC98E3033784FE832744FDA907DB
:104950009607BA97033704FC98EB3DA8832744FDDC
:104960000546BE85033584FDEFF07FBA033784FE2C
:10497000832744FD89078E07BA971707000013079E
:1049800087D198E3033784FE832744FDA907960760
:10499000BA97033704FC98E781473E85E27042747A
:1049A00021618280797106F422F00018233CA4FC76
:1049B000AE87232AF4FC833784FD2334F4FE0335C9
:1049C00084FDEFF0FF93AA873E87832744FD81276C
:1049D00063C4E700FD5739A8EFD03FFFAA878127BE
:1049E000032744FD85463A86BE85033584FEEFF0F5
:1049F0005FBD81473E85A2700274456182807971F6
:104A000006F422F00018233CA4FCAE87232AF4FC11
:104A1000833784FD2334F4FE033584FDEFF05F8E8D
:104A2000AA873E87832744FD812763C4E700FD579B
:104A300039A8EFD09FF9AA878127032744FD814633
:104A40003A86BE85033584FEEFF0BFB781473E85C9
:104A5000A270027445618280011106EC22E8001008
:104A60002334A4FEAE872322F4FEEFD01FF6AA87DC
:104A70008127032744FE3A86BE85033584FEEFF086
:104A80003FA0AA873E85E2604264056182800111F1
:104A900006EC22E800102334A4FEEFD01FF3AA870F
:104AA0008127BE85033584FEEFF07FA2AA87812788
:104AB0003E85E2604264056182805D7186E4A2E029
:104AC00080082334A4FC2330B4FCB287232EF4FAEC
:104AD000233C04FC833784FC2330F4FE033584FC40
:104AE000EFF01F82AA873E878327C4FB812763C814
:104AF000E700FD57233CF4FC833784FD8DA023267B
:104B000004FE89A88327C4FE81279DCB0327C4FB0D
:104B10008327C4FE85463A86BE85033504FEEFF042
:104B20005FAAAA87858B1B8707008327C4FEBB1754
:104B3000F7001B870700833784FDD98F233CF4FCE3
:104B40008327C4FE85272326F4FE833704FC858350
:104B50002330F4FC833704FCD5F7833784FD3E858E
:104B6000A6600664616182805D7186E4A2E08008CF
:104B70002334A4FC2330B4FCB287232EF4FA233C64
:104B800004FC833784FC2330F4FE033584FCEFF00F
:104B90002FF7AA873E878327C4FB812763C8E700D6
:104BA000FD57233CF4FC833784FD8DA0232604FEAF
:104BB00089A88327C4FE81279DCB0327C4FB8327B5
:104BC000C4FE81463A86BE85033504FEEFF07F9F22
:104BD000AA87858B1B8707008327C4FEBB17F700B6
:104BE0001B870700833784FDD98F233CF4FC832780
:104BF000C4FE85272326F4FE833704FC85832330F7
:104C0000F4FC833704FCD5F7833784FD3E85A6602A
:104C1000066461618280397106FC22F88000233CC1
:104C2000A4FC2338B4FCB2872326F4FC233004FE12
:104C3000232604FE81A88327C4FE812795CB032762
:104C4000C4FC8327C4FE3A86BE85033584FDEFF09D
:104C50003F83AA87858B1B8707008327C4FEBB176A
:104C6000F7001B870700833704FED98F2330F4FE3B
:104C70008327C4FE85272326F4FE833704FD85831E
:104C80002338F4FC833704FDDDF7833704FE3E85CB
:104C9000E270427421618280011106EC22E800106A
:104CA0002334A4FEAE872322F4FE832744FEBE8570
:104CB000033584FEEFF0BF8181473E85E2604264A8
:104CC00005618280011122EC00102334A4FE033719
:104CD00084FE97370000938767816315F700B75705
:104CE000011011A081473E85626405618280011137
:104CF00022EC00102334A4FE033784FE9727000023
:104D00009387C77E6317F70097270000938707C430
:104D100011A081473E85626405618280797106F445
:104D200022F00018233CA4FC033584FDEFF09FF92A
:104D30002334A4FE0100833784FEC10783C7070024
:104D400093F7F70F898BE5FB0100A27002744561B0
:104D50008280797106F422F00018233CA4FC83378A
:104D600084FD2334F4FE033784FE833784FEDC475E
:104D70008127BE853A85EF10A0160100A27002744B
:104D800045618280797106F422F00018233CA4FC6E
:104D9000AE873287232AF4FCBA872328F4FC8337B2
:104DA00084FD2334F4FE833784FD8DC7832704FDFF
:104DB0001B8707008547631FF700832744FDBE85D7
:104DC000033584FDEF10C011AA8789E7833784FE7D
:104DD000054798C70100A27002744561828079710D
:104DE00022F40018233CA4FC833784FD2334F4FE12
:104DF000833784FEDC4781273E85227445618280AB
:104E00005D7186E4A2E08008233CA4FAAE87232AE1
:104E1000F4FA033584FBEFF09FED2330A4FE8337D3
:104E200084FB233CF4FC033584FBEFF0BFE923381B
:104E3000A4FCFD572326F4FE833704FE638C071081
:104E4000833784FB63880710833704FE9C639C636D
:104E5000033504FE82972334A4FC833784FD1707AF
:104E600000001307E7EB98EB833784FD033784FDDD
:104E700098EF833784FDC107BE85033504FEEF003C
:104E80003066833784FD170700001307C7EC98F7D7
:104E9000833784FD033784FD98FB833784FD938734
:104EA0008702BE85033504FEEF00B066032744FB8E
:104EB000BA879B972700B99F812782178193033771
:104EC00084FCB347F702FD172330F4FC033704FCDE
:104ED000C1676351F708833704FC63CD0706833746
:104EE00004FDA10783C7070093F7F70F033704FDFD
:104EF000210793F7F70793F7F70F2300F70083379E
:104F000004FD033704FC1377F70F2380E700833792
:104F100004FC93D68740833704FD91073E8793F7BF
:104F2000F60F2300F700833704FDA10783C70700AE
:104F300093F7F70F033704FD210793E707F893F77B
:104F4000F70F2300F700833784FD032744FBD8C7FE
:104F5000232604FE8327C4FE3E85A66006646161A5
:104F60008280797106F422F00018233CA4FCAE87FD
:104F70003287232AF4FCBA87A309F4FC232604FE13
:104F8000EF108006AA8785072330F4FE11A8EF10E2
:104F9000A0052A87833704FE63D4E700FD5745A8A0
:104FA000833784FDC10783C7070093F7F70F898B09
:104FB000F9FF832744FD93F7F70F9B97170013F72B
:104FC000F70F834734FD858B93F7F70F833684FD06
:104FD000B106D98F93F7F70F2380F600833784FD4E
:104FE000C1073E87930700F92300F700EF00D07F49
:104FF000AA8785072330F4FE11A8EF00F07E2A87E8
:10500000833704FE63D4E700FD5791A0833784FD06
:10501000C10783C7070093F7F70F898BF9FF833721
:1050200084FDC10783C7070093F7F70F9B9787019C
:105030009BD7874163DB070017B5FFFF1305857D0D
:10504000EFB0BFECFD572326F4FE8327C4FE3E8558
:10505000A2700274456182805D7186E4A2E08008DE
:105060002334A4FCAE87233CD4FA2322F4FCB28779
:105070002320F4FCBA87232AF4FA033584FCEFF0EA
:105080007FC4233CA4FC833784FC638407128337EA
:1050900084FC9C47638F0710832744FC0146BE8530
:1050A000033584FDEFF0FFEBAA872324F4FE83276A
:1050B00084FE812799CB832784FEBE8517B5FFFF29
:1050C0001305C576EFB0DFD1C5A8C147A307F4FE2D
:1050D000232204FEF1A0836744FE033784FBBA97C2
:1050E000033784FD310783C707002300F7008327B8
:1050F00004FCFD371B870700832744FE8127639349
:10510000E702832744FB93F7F70F9B97670093F71A
:10511000F70F93F7070413F7F70F8347F4FED98FC0
:10512000A307F4FE833784FDC1073E878347F4FE5F
:105130002300F700EF00506BAA8785072338F4FCA3
:1051400011A8EF00706A2A87833704FD63D4E70053
:10515000FD57ADA0833784FDC10783C7070093F7D0
:10516000F70F898BF9FF833784FDC10783C70700D9
:1051700093F7F70F9B9787019BD7874163DD070064
:1051800017B5FFFF1305856CEFB03FD8FD572324FB
:10519000F4FE010015A0832744FE85272322F4FE98
:1051A000032744FE832704FC01278127E365F7F2E8
:1051B00021A0FD572324F4FE832784FE3E85A660AC
:1051C0000664616182805D7186E4A2E08008233418
:1051D000A4FCAE87233CD4FA2322F4FCB28723201C
:1051E000F4FCBA87232AF4FA033584FCEFF09FAD70
:1051F000233CA4FC833784FC63810710833784FC41
:105200009C47638C070E832744FC0546BE85033507
:1052100084FDEFF01FD5AA872326F4FE8327C4FE62
:10522000812781CB17B5FFFF1305C563EFB0FFCD15
:10523000F1A893070002A305F4FE232204FE6DA04B
:10524000832704FCFD371B870700832744FE812743
:105250006397E702832744FB93F7F70F9B97670059
:1052600093F7F70F93F7070413F7F70F8347B4FE8D
:10527000D98F93F7F70F93E78700A305F4FE8337E1
:1052800084FDC1073E878347B4FE2300F700EF008B
:10529000B055AA8785072338F4FC11A8EF00D05435
:1052A0002A87833704FD63D4E700FD5795A0833731
:1052B00084FDC10783C7070093F7F70F898BF9FFB8
:1052C000833784FDB107BE86836744FE033784FBC2
:1052D000BA9703C706001377F70F2380E7008327E9
:1052E00044FE85272322F4FE032744FE832704FC83
:1052F00001278127E366F7F411A817B5FFFF13050F
:10530000E557EFB09FC0FD572326F4FE8327C4FE68
:105310003E85A6600664616182801D7186ECA2E80C
:1053200080102334A4FC233CC4FA2338E4FA3E87DB
:10533000AE872322F4FCB6872320F4FCBA87232609
:10534000F4FA033584FCEFF0FF97233CA4FC833789
:1053500084FC638D071C833784FC9C476388071C8F
:10536000832704FC8127E5CBC147A307F4FE8327ED
:1053700044FC0146BE85033584FDEFF09FBEAA873D
:105380002324F4FE832784FE812781C7832784FE9C
:105390005DA2232204FE45A8836744FE033784FBF5
:1053A000BA97033784FD310783C707002300F7004E
:1053B000832704FCFD371B870700832744FE8127D2
:1053C000639CE7008327C4FA812799E78347F4FEAB
:1053D00093E70704A307F4FE833784FDC1073E87E4
:1053E0008347F4FE2300F700EF001040AA878507EB
:1053F0002338F4FC11A8EF00303F2A87833704FDDF
:1054000063D4E700FD5705AA833784FDC10783C72E
:10541000070093F7F70F898BF9FF833784FDC107E6
:1054200083C7070093F7F70F9B9787019BD78741A7
:1054300063D60700FD572324F4FE31A8832744FEDA
:1054400085272322F4FE032744FE832704FC01273B
:105450008127E363F7F48327C4FA8127F9CB930705
:105460000002A307F4FE832744FC0546BE850335EE
:1054700084FDEFF01FAFAA872324F4FE832784FE68
:10548000812781C7832784FE7DA0232204FE71A08B
:105490008327C4FAFD371B870700832744FE812733
:1054A0006398E7008347F4FE93E78704A307F4FEBD
:1054B000833784FDC1073E878347F4FE2300F7004E
:1054C000EF009032AA8785072338F4FC11A8EF007B
:1054D000B0312A87833704FD63D4E700FD57A1A8C4
:1054E000833784FDC10783C7070093F7F70F898BC4
:1054F000F9FF833784FDB107BE86836744FE033717
:1055000004FBBA9703C706001377F70F2380E70061
:10551000832744FE85272322F4FE032744FE8327A6
:10552000C4FA01278127E365F7F621A0FD5723245C
:10553000F4FE832784FE3E85E66046642561828012
:10554000011122EC00102334A4FE033784FE9727B8
:1055500000009387A7FD6315F700B737011011A06E
:1055600081473E85626405618280011122EC001052
:105570002334A4FE033784FE97270000938707FB9C
:105580006317F700972700009387C79811A08147FA
:105590003E85626405618280011122EC0010233493
:1055A000A4FE033784FE97270000938727F863142F
:1055B000F700894711A081473E85626405618280BA
:1055C000011122EC00102334A4FE033784FE972738
:1055D00000009387A7F56317F700971700009387DC
:1055E000E73611A081473E85626405618280011122
:1055F00022EC00102334A4FE033784FE972700001A
:105600009387C7F26314F700814711A081473E8555
:10561000626405618280011122EC00102334A4FE33
:10562000033784FE97270000938747F06314F70041
:10563000814711A081473E85626405618280011126
:1056400022EC00102334A4FE033784FE97270000C9
:105650009387C7ED6314F700814711A081473E850A
:10566000626405618280011106EC22E80010233497
:10567000A4FE033584FEEFF05FEFAA873E85E2606B
:10568000426405618280011106EC22E80010233497
:10569000A4FE033584FEEFF03FF0AA873E85E2606A
:1056A000426405618280797106F422F00018233C7F
:1056B000A4FC033584FDEFF0BFE8AA872334F4FE91
:1056C000833784FEC1079C439B860700833784FE93
:1056D000C1073E87B68793E7170081271CC3814720
:1056E0003E85A270027445618280797106F422F0D1
:1056F0000018233CA4FC033584FDEFF07FE4AA8767
:105700002334F4FE833784FEC1079C439B86070045
:10571000833784FEC1073E87B687F99B81271CC368
:1057200081473E85A270027445618280797106F4DA
:1057300022F00018233CA4FC033584FDEFF05FE069
:10574000AA872334F4FE833784FEC1079C439B86DB
:105750000700833784FEC1073E87B68793E727009B
:1057600081271CC381473E85A270027445618280F7
:10577000797106F422F00018233CA4FC033584FD63
:10578000EFF01FDCAA872334F4FE833784FEC107C1
:105790009C439B860700833784FEC1073E87B687FC
:1057A000F59B81271CC381473E85A2700274456129
:1057B0008280797106F422F00018233CA4FC0335A2
:1057C00084FDEFF0FFD7AA872334F4FE833784FEED
:1057D0009C43812781279BD7F70193F7F70F8127F8
:1057E0003E85A270027445618280797106F422F0D0
:1057F0000018233CA4FC2338B4FC033584FDEFF0EF
:105800003FD4AA872334F4FE833784FEA1079C4348
:105810009B860700833704FD81279B97070181271B
:105820003E87B7070700F98F1B860700833784FE82
:10583000A1073E87B287D58F81271CC381473E854C
:10584000A270027445618280797106F422F000181A
:10585000233CA4FC033584FDEFF09FCEAA872334BC
:10586000F4FE833784FEA1079C4381279BD7070161
:105870008127821781939D8B3E85A27002744561BA
:105880008280797106F422F00018233CA4FC2338AE
:10589000B4FC033584FDEFF0BFCAAA872334F4FEBD
:1058A000833784FEB1079C439B860700833704FD42
:1058B00081279B97070181273E87B7070700F98F4C
:1058C0001B860700833784FEB1073E87B287D58FDA
:1058D00081271CC381473E85A27002744561828086
:1058E000797106F422F00018233CA4FC033584FDF2
:1058F000EFF01FC5AA872334F4FE833784FEB10777
:105900009C4381279BD707018127821781939D8B19
:105910003E85A270027445618280797106F422F09E
:105920000018233CA4FCAE87232AF4FC033584FD35
:10593000EFF01FC1AA872334F4FE0100033584FD74
:10594000EFF03FE7AA87FDFB833784FE032744FD82
:1059500098C381473E85A270027445618280797147
:1059600006F422F00018233CA4FC2338B4FC0335D1
:1059700084FDEFF0FFBCAA872334F4FE833784FE56
:1059800091079C432322F4FE832744FE63D707003C
:10599000833704FD7D5798C311A8832744FE93F7EE
:1059A000F70F1B870700833704FD98C381473E85A7
:1059B000A270027445618280797122F40018233C40
:1059C000A4FC833784FD2334F4FE833784FE9C6774
:1059D00081273E85227445618280397106FC22F858
:1059E00080002334A4FCAE872322F4FC833784FC9C
:1059F0002334F4FE033584FCEFF09FB4AA872330F0
:105A0000F4FE033584FCEFF0BFBB233CA4FC03276A
:105A100044FC833784FE98E7833784FDADC7833722
:105A200084FD9C639C63033584FD82972338A4FC2A
:105A3000832744FC033704FDB347F702812703376C
:105A400004FE6107FD3781271CC3833704FEA107CD
:105A50009C439B860700833704FEA1073E87B687D9
:105A600093E7170081271CC3833704FEB1079C43CB
:105A70009B860700833704FEB1073E87B68793E70E
:105A8000170081271CC381473E85E2704274216163
:105A900082801D7186ECA2E880102334A4FA83373B
:105AA00084FA2334F4FE033584FAEFF07FA9AA8741
:105AB0002330F4FE033584FAEFF09FB0233CA4FCBE
:105AC000833704FEA1079C439B860700833704FEAF
:105AD000A1073E87B707F9FFFD17F58F81271CC384
:105AE000833704FEA1079C439B860700833704FE8F
:105AF000A1073E87C167D58F81271CC3010083376B
:105B000004FED1079C438127858B8127EDDB8337FA
:105B100004FEA1079C438127898B812799C3A54750
:105B200011A0A9472338F4FC833784FD9C639C6350
:105B3000033584FD82972334A4FC033704FD8337A7
:105B400084FCB307F7023E87833784FE9C67B35714
:105B5000F7022330F4FC233C04FA39A00100833718
